:020000040000FA
:040000000CEF00F011
:10000800EE6AEA50E262FCD7E950E162F9D71200E1
:1000180003EEF3F014EE00F005EC00F000EE00F053
:1000280010EE01F005EC00F094EF01F0FA002BD08F
:100038000001FC6BFD6B1CD00001FE6BFF6B000E1A
:10004800FF5D0A0ED8B4FE5DD8A001D001D001D062
:100058000CD00001FE4BFF2B000EFF5D0A0ED8B43A
:10006800FE5DD8A001D001D0F4D70001FC4BFD2BD8
:100078000001FB51FD5D02E1FA51FC5DD8A001D001
:1000880001D0DAD71200D4D70CD0958E819A818806
:10009800818600D083BE01D001D0FCD78196959E81
:1000A8001200F3D707D0819A8198836E818600F079
:1000B80081961200F8D706D0E7DF0001FF6FFF51E5
:1000C800F1DF1200F9D708D0DFDF818A8198836ECB
:1000D800818600F081961200F7D7FD0014D00F0B2F
:1000E8000001FE6F010EFD17FD51D8A401D001D00B
:1000F80004D0FE518009DFDF05D00001FE51400F1A
:100108008009D9DF1200EBD720D0960E0001FA6FD4
:10011800FB6B8DDF380EC6DF320E0001FA6FFB6B0A
:1001280086DF380EBFDF320E0001FA6FFB6B7FDF10
:10013800380EB8DF380EBFDF080EBDDF010EBBDF9B
:10014800060EB9DF0C0EB7DF1200DFD7FA000AD0AF
:10015800FAC0FDF00001FC6FFC51C0DF0001FB514B
:10016800B2DF1200F5D70CD0080EC66E93809382CA
:10017800090EC86E800EC76EC56AC68A0090120046
:10018800F3D709D0C5829EA601D001D001D001D0F5
:10019800FAD79E961200F6D717D00001FC6BC580DF
:1001A8000001FC2B9EA601D001D001D00BD000018C
:1001B800FC51C80AD8A401D001D003D0FC6B008040
:1001C80001D0EED79E961200E8D709D0C5849EA626
:1001D80001D001D001D001D0FAD79E961200F6D7EF
:1001E80021D0C96E0001FD6F9EA601D001D001D0BB
:1001F80001D0FAD79E960001FC6B090EFC6501D070
:1002080001D001D007D00001FC2B090EFC6501D0FC
:1002180001D0F9D7C5AC01D001D002D0008001D0FF
:1002280000901200DED70BD0B7DFA00ED9DFCDDFEC
:1002380000B001D001D001D001D0F6D71200F4D718
:10024800FA0028D00001FB6FA7DF00A001D001D081
:1002580002D000901ED0A20EC3DF00A001D001D0B2
:1002680003D00090B2DF15D00001FB51B9DF00A028
:1002780001D001D003D00090A8DF0BD00001FA51C3
:10028800AFDF00A001D001D003D000909EDF01D0E5
:100298009CDF1200D7D743D00001FB6F7DDF00A0A1
:1002A80001D001D003D00090FF0E38D0A20E98DF05
:1002B80000A001D001D004D0009087DFFF0E2ED01F
:1002C8000001FB518DDF00A001D001D004D00090C7
:1002D8007CDFFF0E23D055DFA30E82DF00A001D004
:1002E80001D004D0009071DFFF0E18D0C5869EA6FD
:1002F80001D001D001D001D0FAD79E96C950000193
:10030800FA6FC58AC5889EA601D001D001D001D058
:10031800FAD79E965ADF0001FA5100D01200BCD7D6
:10032800D7D0D36A0F0EC16EC70E936E956A1BDFC6
:100338000001FA6B000E85DF0001FA6B010E81DF08
:100348000001FA6B020E7DDF550E0001FA6F030EF5
:1003580078DF200E0001FA6F040E73DF010E000132
:10036800FA6F050E6EDF0001FA6B060E6ADF020EE9
:100378000001FA6F070E65DF110E0001FA6F080E13
:1003880060DFC2DE960E0001FA6FFB6B50DE080ECE
:1003980082DFF96FFA6B320EFB6F000ED8DE0001B8
:1003A800FA6B300EFB6F010ED2DE0001FA6BF939E1
:1003B8000F0B0F0B300FFB6F020EC9DE0001FA6B3B
:1003C800F9510F0B300FFB6F030EC1DE0001FA6B02
:1003D8002E0EFB6F040EBBDE070E5DDFF96FFA6BA6
:1003E800F9390F0B010B300FFB6F050EB0DE000162
:0803F800FA6BF9510F0B300FF5
:10040000FB6F060EA8DE0001FA6B2E0EFB6F070EC7
:10041000A2DE050E44DFF96FFA6BF9390F0B030BFF
:10042000300FFB6F080E97DE0001FA6BF9510F0BCE
:10043000300FFB6F090E8FDE040E31DFF96F010EF6
:10044000FA6FF9390F0B030B300FFB6F000E83DED1
:10045000010E0001FA6FF9510F0B300FFB6F010E07
:100460007ADE010E0001FA6F3A0EFB6F020E73DEA8
:10047000030E15DFF96F010EFA6FF9390F0B0F0B31
:10048000300FFB6F030E67DE010E0001FA6FF951AA
:100490000F0B300FFB6F040E5EDE010E0001FA6FD2
:1004A0003A0EFB6F050E57DE020EF9DEF96F010EF4
:1004B000FA6FF9390F0B070B300FFB6F060E4BDE8F
:1004C000010E0001FA6FF9510F0B300FFB6F070E91
:0A04D00042DE5CD70CEF00F028D7E5
:020000040030CA
:08000000FFFCFFFEFFFDBBFF4A
:020000040000FA
:00000001FF
