:020000040000FA
:040000000CEF00F011
:10001200A6A21200FDD7ABEF00F0FA002BD0000130
:10002200FC6BFD6B1CD00001FE6BFF6B000EFF5DD5
:100032000A0ED8B4FE5DD8A001D001D001D00CD0F8
:100042000001FE4BFF2B000EFF5D0A0ED8B4FE5DD1
:10005200D8A001D001D0F4D70001FC4BFD2B000148
:10006200FB51FD5D02E1FA51FC5DD8A001D001D047
:10007200DAD71200D4D70CD0958E819A81888186E6
:1000820000D083BE01D001D0FCD78196959E12008C
:10009200F3D707D0819A8198836E818600F081968A
:1000A2001200F8D706D0E7DF0001FF6FFF51F1DF42
:1000B2001200F9D708D0DFDF818A8198836E8186AA
:1000C20000F081961200F7D7FD0014D00F0B00014B
:1000D200FE6F010EFD17FD51D8A401D001D004D04E
:1000E200FE518009DFDF05D00001FE51400F80097B
:1000F200D9DF1200EBD720D0960E0001FA6FFB6B0E
:100102008DDF380EC6DF320E0001FA6FFB6B86DF21
:10011200380EBFDF320E0001FA6FFB6B7FDF380E45
:10012200B8DF380EBFDF080EBDDF010EBBDF060EE3
:10013200B9DF0C0EB7DF1200DFD7FA000AD0FAC01F
:10014200FDF00001FC6FFC51C0DF0001FB51B2DF8A
:100152001200F5D7DED0D36A0F0EC16EC70E936EB2
:10016200956A100E0001FA6FFB6BD3EC01F00001EF
:10017200F96FF92B100EFA6FFB6BF951FC6FBAECA9
:1001820001F0B9DF0001FA6B2D0EFB6F000ED6DF16
:100192000001FA6B2D0EFB6F010ED0DF0001FA6B2E
:1001A200450EFB6F020ECADF0001FA6B450EFB6FB4
:1001B200030EC4DF0001FA6B500EFB6F040EBEDFAC
:1001C2000001FA6B520EFB6F050EB8DF0001FA6BED
:1001D2004F0EFB6F060EB2DF0001FA6B4D0EFB6F86
:1001E200070EACDF0001FA6B540EFB6F090EA6DF9F
:1001F2000001FA6B450EFB6F0A0EA0DF0001FA6BDD
:10020200530EFB6F0B0E9ADF0001FA6B540EFB6F5D
:100212000C0E94DF0001FA6B2D0EFB6F0D0E8EDFBC
:100222000001FA6B2D0EFB6F0E0E88DF010E00012E
:10023200FA6F420EFB6F000E81DF010E0001FA6FB2
:100242006F0EFB6F010E7ADF010E0001FA6F6F0E67
:10025200FB6F020E73DF010E0001FA6F740EFB6F6B
:10026200030E6CDF010E0001FA6F740EFB6F050EB8
:1002720065DF010E0001FA6F690EFB6F060E5EDF8D
:10028200010E0001FA6F6D0EFB6F070E57DF010EB4
:100292000001FA6F650EFB6F080E50DF010E0001C0
:1002A200FA6F730EFB6F090E49DF010E0001FA6F40
:1002B2003A0EFB6F0A0E42DF010E0001FA6F640E66
:1002C200016EF9518BEC01F0300FFB6F0C0E36DF33
:1002D200010E0001FA6F640E016EF9518BEC01F010
:1002E2000A0E016E00508BEC01F0300FFB6F0D0E09
:1002F20025DF010E0001FA6F0A0E016EF9518BEC37
:1003020001F00050300FFB6F0E0E18DFFFD70CEF1D
:1003120000F021D7006E046AD890FD0E01241AE382
:10032200036AF00E011403E1040E036E013A026A3D
:10033200D890032A0136FDE301320150005CD8B0A7
:10034200006E0236032EF8D704BE026C025004BEC1
:10035200006C1200013206E20132D8A0006AD89085
:100362000032D8A0D89000C002F0006A0036ECD764
:10037200FA0009EC00F00001FA51A96EFC51A86ED6
:100382003F0EA616D890F2BED880F29EA684550ED5
:10039200A76EAA0EA76EA682A198A694D8B0F28ED6
:1003A2001200FA0009EC00F00001FA51A96E3F0EAA
:0803B200A616A680A850120057
:020000040030CA
:08000000FFFCFFFEFFFDBBFF4A
:020000040000FA
:00000001FF
