:020000040000FA
:040000000CEF00F011
:10000800EE6AEA50E262FCD7E950E162F9D71200E1
:1000180003EEFFF014EE00F005EC00F000EE01F046
:1000280010EE02F005EC00F0E6EF00F0FA002BD03D
:100038000001FC6BFD6B1CD00001FE6BFF6B000E1A
:10004800FF5D0A0ED8B4FE5DD8A001D001D001D062
:100058000CD00001FE4BFF2B000EFF5D0A0ED8B43A
:10006800FE5DD8A001D001D0F4D70001FC4BFD2BD8
:100078000001FB51FD5D02E1FA51FC5DD8A001D001
:1000880001D0DAD71200D4D70CD0958E8092808414
:10009800808600D083BE01D001D0FCD78096959E83
:1000A8001200F3D707D080928094836E808600F088
:1000B80080961200F8D706D0E7DF0001FF6FFF51E6
:1000C800F1DF1200F9D708D0DFDF80828094836ED9
:1000D800808600F080961200F7D7FD0014D00F0B31
:1000E8000001FE6F010EFD17FD51D8A401D001D00B
:1000F80004D0FE518009DFDF05D00001FE51400F1A
:100108008009D9DF1200EBD720D0960E0001FA6FD4
:10011800FB6B8DDF380EC6DF320E0001FA6FFB6B0A
:1001280086DF380EBFDF320E0001FA6FFB6B7FDF10
:10013800380EB8DF380EBFDF080EBDDF010EBBDF9B
:10014800060EB9DF0C0EB7DF1200DFD7FA000AD0AF
:10015800FAC0FDF00001FC6FFC51C0DF0001FB514B
:10016800B2DF1200F5D70FD0AC84810EAF6EAC9819
:10017800AB8EAB88AB9A9D989D9AAC9CAB9CAC8A95
:10018800948C948E1200F0D709D0AD6E0001FA6FEE
:1001980000D0ACB201D001D0FCD71200F6D711D0F4
:1001A8009EAA01D001D00AD0AECFFFF3ABA201D0F6
:1001B80001D002D0AB98AB88010E02D0000E00D05F
:1001C8001200EED779D1D36A0F0EC16EC00E926EAF
:1001D800956A9ADFC8DF0001FA6B520EFB6F000EBA
:1001E800B6DF0001FA6B450EFB6F010EB0DF0001B0
:1001F800FA6B430EFB6F020EAADF0001FA6B450E85
:10020800FB6F030EA4DF0001FA6B490EFB6F040EAF
:100218009EDF0001FA6B560EFB6F050E98DF00019A
:10022800FA6B450EFB6F060E92DF0001FA6B410E6A
:10023800FB6F080E8CDF0001FA6B420EFB6F0A0E93
:1002480086DF0001FA6B590EFB6F0B0E80DF000191
:10025800FA6B540EFB6F0C0E7ADF0001FA6B450E39
:10026800FB6F0D0E74DF010E0001FA6F420EFB6F7B
:10027800000E6DDF010E0001FA6F410EFB6F010EDB
:1002880066DF010E0001FA6F550EFB6F020E5FDF8D
:10029800010E0001FA6F440EFB6F030E58DF010ECA
:1002A8000001FA6F520EFB6F050E51DF010E0001BF
:1002B800FA6F410EFB6F060E4ADF010E0001FA6F5E
:1002C800540EFB6F070E43DF010E0001FA6F450E57
:1002D800FB6F080E3CDF010E0001FA6F3A0EFB6F50
:1002E800090E35DF010E0001FA6F390EFB6F0A0E99
:1002F8002EDF010E0001FA6F360EFB6F0B0E27DFA3
:10030800010E0001FA6F300EFB6F0C0E20DF010E9C
:100318000001FA6F300EFB6F0D0E19DF01803FDF11
:10032800006E0004D8A401D001D0C3D001A001D030
:1003380001D002D00190E8DE0001FA6B520EFB6F8B
:10034800000E05DF0001FA6B450EFB6F010EFFDEA4
:100358000001FA6B430EFB6F020EF9DE0001FA6B27
:10036800450EFB6F030EF3DE0001FA6B3A0EFB6FCE
:10037800040EEDDE0001FA6B300EFB6F060EE7DEB1
:100388000001FA6B580EFB6F070EE1DEFFC300F0A9
:1003980000380F0B0001F96F0A0EF96101D001D086
:1003A80003D0300EF92703D0370E0001F9270001DA
:1003B800FA6BF951FB6F080ECADEFFC3E8FF0F0B9B
:1003C8000001F96F0A0EF96101D001D003D0300E97
:1003D800F92703D0370E0001F9270001FA6BF9510C
:1003E800FB6F090EB4DE0301010EFF27FFC3E8FF10
:0803F800CBDE010E0001FA6FDB
:10040000530EFB6F000EA7DE010E0001FA6F450EC2
:10041000FB6F010EA0DE010E0001FA6F4E0EFB6FA6
:10042000020E99DE010E0001FA6F440EFB6F030EFF
:1004300092DE010E0001FA6F3A0EFB6F040E8BDEA6
:10044000010E0001FA6F300EFB6F060E84DE010E06
:100450000001FA6F580EFB6F070E7DDEFFC300F040
:1004600000380F0B0001F96F0A0EF96101D001D0BD
:1004700003D0300EF92703D0370E0001F927010E03
:100480000001FA6FF951FB6F080E65DEFFC3E8FF4C
:100490000F0B0001F96F0A0EF96101D001D003D0F2
:1004A000300EF92703D0370E0001F927010E0001A5
:1004B000FA6FF951FB6F090E4EDE35D70CEF00F0E5
:0204C00086D6DE
:020000040030CA
:08000000E7FCFFFEFFFDBBFF62
:020000040000FA
:00000001FF
