:020000040000FA
:040000000CEF00F011
:0C000800D8CFFFF3E0CF02F0F3EF00F0E0
:1000180003EEF5F013EEFAF084EC02F000EE03F0D4
:1000280010EE04F084EC02F09BEF01F008D0F2949B
:10003800F28AC80ED56E0D0ED66EF28E1200F7D764
:1000480009D00301F86B0301F96B03940301F76B03
:1000580003921200F6D722D0030E0301F96507D0E8
:1000680000D0060E0301F96102D000D002D000D002
:1000780003D0000E12D00FD0070E0301F96507D088
:1000880000D00B0E0301F96102D000D002D000D0DD
:1000980002D0010E02D0020E00D01200DDD79ED091
:1000A800F2A401D001D006D00D0ED66EF294030151
:1000B800010EF927F2A201D001D080D0F29E0301EF
:1000C800010EF82703B401D001D015D0280E030182
:1000D800F96507D000D03A0E0301F96102D000D0CB
:1000E80002D000D006D003840301F86B0301F96B3A
:1000F80001D0A6DF62D003EEF7F0D890EF32ABDF85
:10010800E8CFF5F30301F96BF5C300F00004D8A4B8
:1001180001D001D003D00301F78F0BD00301F553B1
:10012800D8A401D001D003D00301F79F02D088DF03
:1001380046D0F8C3E8FF080AD8A401D001D009D0F6
:100148000301F753D8B401D001D002D079DF37D0FA
:1001580034D0F8C3E8FF100AD8A401D001D00AD0DF
:10016800F7C300F00028D8B401D001D002D068DF6E
:1001780026D023D0F8C3E8FF180AD8A401D001D0AC
:1001880003D0F7C3F6F319D0F8C3E8FF200AD8A4C0
:1001980001D001D012D00301F86B0394F7C3E8FF34
:1001A800F6C300F0016A0026000E012200280110A3
:1001B800D8A401D001D001D00382F292F28EFAC302
:1001C80000F0FBC301F0FCC3EAFFFDC3E9FFFEC377
:1001D800E8FF02C0E0FFFFC3D8FF100061D7E8CFF7
:1001E800FEF3E9CFFDF3EACFFCF301C0FBF300C057
:1001F800FAF355D7FA002BD00001FC6BFD6B1CD02D
:100208000001FE6BFF6B000EFF5D0A0ED8B4FE5DA9
:10021800D8A001D001D001D00CD00001FE4BFF2B9B
:10022800000EFF5D0A0ED8B4FE5DD8A001D001D043
:10023800F4D70001FC4BFD2B0001FB51FD5D02E1F1
:10024800FA51FC5DD8A001D001D0DAD71200D4D77A
:100258000CD0958E819A8188818600D083BE01D08A
:1002680001D0FCD78196959E1200F3D707D0819ACA
:100278008198836E818600F081961200F8D706D0A7
:10028800E7DF0001FF6FFF51F1DF1200F9D708D057
:10029800DFDF818A8198836E818600F08196120063
:1002A800F7D7FD0014D00F0B0001FE6F010EFD17EC
:1002B800FD51D8A401D001D004D0FE518009DFDF60
:1002C80005D00001FE51400F8009D9DF1200EBD79D
:1002D80020D0960E0001FA6FFB6B8DDF380EC6DF5B
:1002E800320E0001FA6FFB6B86DF380EBFDF320E6D
:1002F8000001FA6FFB6B7FDF380EB8DF380EBFDF07
:10030800080EBDDF010EBBDF060EB9DF0C0EB7DF2E
:100318001200DFD7FA000AD0FAC0FDF00001FC6F26
:10032800FC51C0DF0001FB51B2DF1200F5D7E6D067
:10033800D36A816A8A6A0F0EC16EC70E936E94687B
:10034800956A74DEF296F292F19CF288F28EC0DF22
:100358000001FA6B500EFB6F000EDDDF0001FA6B37
:10036800720EFB6F010ED7DF0001FA6B650EFB6F93
:10037800020ED1DF0001FA6B730EFB6F030ECBDFA9
:100388000001FA6B730EFB6F040EC5DF0001FA6BF8
:10039800520EFB6F060EBFDF0001FA6B650EFB6F96
:1003A800070EB9DF0001FA6B6D0EFB6F080EB3DFA5
:1003B8000001FA6B6F0EFB6F090EADDF0001FA6BDF
:1003C800740EFB6F0A0EA7DF0001FA6B650EFB6F58
:1003D8000B0EA1DF0001FA6B630EFB6F0D0E9BDFA6
:1003E8000001FA6B6F0EFB6F0E0E95DF0001FA6BC2
:0803F8006E0EFB6F0F0E8FDF8C
:10040000010E0001FA6F740EFB6F000E88DF010E03
:100410000001FA6F720EFB6F010E81DF010E000109
:10042000FA6F6F0EFB6F020E7ADF010E0001FA6F9A
:100430006C0EFB6F030E73DF038003A201D001D0AB
:100440005ED0039203A001D001D002D0039044DF1C
:100450000001FA6B430EFB6F000E61DF0001FA6BC7
:100460004F0EFB6F010E5BDF0001FA6B440EFB6F5A
:10047000020E55DF0001FA6B450EFB6F030E4FDFD6
:100480000001FA6B3A0EFB6F040E49DF0001FA6BB4
:10049000300EFB6F060E43DF0001FA6B580EFB6F48
:1004A000070E3DDFF6C300F000380F0B0001F96FB7
:1004B0000A0EF96101D001D003D0300EF92703D024
:1004C000370E0001F9270001FA6BF951FB6F080E96
:1004D00026DFF6C3E8FF0F0B0001F96F0A0EF96182
:1004E00001D001D003D0300EF92703D0370E000120
:1004F000F9270001FA6BF951FB6F090E10DF9DD748
:100500000CEF00F019D7EE6AEA50E262FCD7E9502E
:06051000E162F9D71200C0
:020000040030CA
:08000000FFFCFFFEFFFDBBFF4A
:020000040000FA
:00000001FF
