:1000000000EE00F0250EEE6AE806FDE104EE00F0D9
:1000100011EE00F014EC00F00FEE70F00F0EEE6A2F
:10002000E806FDE193EF3EF0EE6AE550E150FCE1B9
:06003000E250FAE11200AB
:10754800E8CFD9FFB2EC3AF0D950BBEF3AF041504E
:107558004210431002E0800E431A1200958E80926A
:107568008084808683BEFED78096959E1200E8CFE1
:10757800E9FF80928094E9CF83FF808600F08096AF
:107588001200E8CFF3FF2FC031F0F350DBEC3AF0F4
:107598003050CFEF3AF0E8CFD9FFB2EC3AF0808222
:1075A8008094D9CF83FF808600F080961200E8CFC0
:1075B800E1FF0F0EE116010E3116316605D0E150DC
:1075C8008009A4EC3AF005D0E150400F8009A4EC02
:1075D8003AF01200F36AF46A2F50F35C3050F45812
:1075E8000CE2316A326A314A322A0A0E315C000EE4
:1075F8003258F9E3F34AF42AEFD71200800E381A0A
:1076080036C03CF037C03DF038C03EF033C039F0EA
:1076180034C03AF035C03BF0FAEC3DF039C033F0F5
:107628003AC034F03BC035F0120033C036F034C0F5
:1076380037F035C038F05FEC3CF036C036F037C074
:1076480037F038C038F039C039F0A4EC3CF036C017
:1076580033F037C034F038C035F0120030502F10F6
:1076680004E12F6A306A316A13D02FC032F030C07B
:1076780033F0346A8E0E446E320E426E000E436E44
:1076880093EC3DF032C02FF033C030F034C031F00D
:1076980012003250311017E0010ED96E32BE05D0FB
:1076A800D89031363236D92AF9D731502F5C32503A
:1076B800305804E331502F5E3250305AD89032326D
:1076C8003132D92EF2D71200320E2F6E000E306AE8
:1076D80012003250372633503822345039221200E3
:1076E800316E000E326A23C02FF024C030F0120031
:1076F80042C0E9FF43C0EAFFEC52EC52D890ED32A9
:10770800ED32EF321200F36AF46A325031101BE0A6
:10771800010ED96ED89032BE05D031363236D92A0C
:10772800F9D7D890F336F43631502F5C32503058B0
:1077380005E331502F5E3250305AF380D890323200
:107748003132D92EEED7F3CF2FF0F4CF30F012002C
:10775800960E2F6E000E306AEEEC3AF0380EBBEC47
:107768003AF068EC3BF0EEEC3AF0380EBBEC3AF04D
:1077780068EC3BF0EEEC3AF0380EBBEC3AF0380E21
:10778800A4EC3AF0080EA4EC3AF0010EA4EC3AF09E
:10779800060EA4EC3AF00C0EA4EF3AF02FC033F02A
:1077A80030C034F031C035F019EC3BF03250E96E9E
:1077B800EA6A33C0EEFF34C0EEFF35C0EDFF325049
:1077C800E96EEA6AEECF36F0EECF37F0EDCF38F05B
:1077D8002FC033F030C034F031C035F002EC3BF04C
:1077E80033C02FF034C030F035C031F01200000E35
:1077F80031AE0ED0356A366A800E376E2F50355C42
:107808002F6E30503658306E31503758316E000E6A
:1078180034AE0ED0356E366A800E376E3250355C17
:10782800326E33503658336E34503758346E000E3B
:107838002F1A800E311A341A32502F5C33503058B8
:1078480034503158120042C0E9FF43C0EAFF010E2C
:10785800EB34020EEB34F46E44C0E9FF45C0EAFF96
:10786800F4CFEFFFF46609D042C0E9FF43C0EAFF56
:10787800000EEE6AEE6AED6A1DD0F36A42C0E9FFB7
:1078880043C0EAFF010EEB8E42C0E9FF43C0EAFFA6
:10789800EECF46F0EECF47F0EECF48F048BEF32AE1
:1078A80042C0E9FF43C0EAFFFF0EEE16EE16000ED7
:1078B800ED16F35012003A0E446E000E456E360E69
:1078C800426E000E436E27EC3CF0D96E36503B6E8C
:1078D80037503C6E38503D6E3E6A8E0E3A5E3AAE78
:1078E8000CD03A50800A8F0F0BE3D8903E323D32CD
:1078F8003C323B323A3EF9D710D01F0E3A640BD0D7
:10790800366A376A386A396A1AD0D8903B363C36B4
:107918003D363E363A063A66F8D7D95008E03E1E5C
:107928003D1E3C1E3B6C000E3C223D223E223BC0CD
:1079380036F03CC037F03DC038F03EC039F0120098
:10794800395036103710381004E1366A376A386A09
:1079580044D0E16A39AE0AD0391E381E371E366C5B
:10796800000E372238223922010EE16E8E0ED96EB2
:107978003D6A3E6A3F6A3950406E40503D103E10A5
:107988003F1007E0D8903932383237323632D92AA8
:10799800EFD736C03AF037C03BF038C03CF0D9CF0B
:1079A80044F03A0E426E000E436E93EC3DF0E15007
:1079B8000EE03AC041F03BC042F03CC043F0ABECB3
:1079C8003AF041C03AF042C03BF043C03CF03AC004
:1079D80036F03BC037F03CC038F01200376A386ADE
:1079E800396A360E446E000E456E2F0E426E000E3A
:1079F800436E27EC3CF0D96E366601D038D0350E90
:107A0800446E000E456E320E426E000E436E27EC39
:107A18003CF0E16E356601D02AD03550890F365ECC
:107A2800E150D91A180EE16ED89037363836393603
:107A380032502F5C335030583450315807E33250AD
:107A48002F5E3350305A3450315A3780D8902F3601
:107A580030363136E12EE8D736C044F0370E426E64
:107A6800000E436E93EC3DF0D950D8A4398E37C040
:107A78002FF038C030F039C031F01200376A386A58
:107A8800396A350E446E000E456E2F0E426E000E9A
:107A9800436E27EC3CF0D96E360E446E000E456EF0
:107AA800320E426E000E436E27EC3CF0D91A365067
:107AB8002FE0356601D02CD036507B0F3526070EC7
:107AC800366E2FB06DEC3BF0D890313230322F3219
:107AD800D890323633363436362EF3D7090E366E12
:107AE8002FB06DEC3BF0D890313230322F32D89035
:107AF800393238323732362EF3D735C044F0370EA4
:107B0800426E000E436E93EC3DF0D950D8A4398EE6
:107B180037C02FF038C030F039C031F0120044506F
:107B280042C0E9FF08E043C0EAFFEE50EE10ED1056
:107B38000CE142C0E9FF43C0EAFF000EEE6AEE6ABC
:107B4800ED6A53D0442A7CEC3BF042C0E9FF43C0C5
:107B5800EAFFEE52EE52FE0EED140CE0F3D7442A83
:107B680042C0E9FF43C0EAFFEE2A000EEE22ED22F2
:107B78007CEC3BF042C0E9FF43C0EAFFEE52EE5214
:107B8800FF0EED140AE0EBD7440642C0E9FF43C0FC
:107B9800EAFFD890EE36EE36ED3642C0E9FF43C034
:107BA800EAFFEECF45F0EECF46F0EECF47F046AE17
:107BB800EBD744B00AD042C0E9FF43C0EAFFFF0E4A
:107BC800EE167F0EEE16FF0EED16D8904432445096
:107BD800476E466A456A42C0E9FF43C0EAFF45501E
:107BE800EE124650EE124750ED121200400E446E4F
:107BF800000E456E390E426E000E436E27EC3CF0C7
:107C0800D96E406607D03CC039F03DC03AF03EC05E
:107C18003BF084D03F0E446E000E456E3C0E426E23
:107C2800000E436E27EC3CF0E16E3F506BE0060E11
:107C3800E96E3F50406022D040503F5C416E190EC3
:107C4800415C08E3396A3A6A3B6A3FC040F0E1CFD9
:107C5800D9FF34D0D8903C363D363E363F063F50AB
:107C6800401808E0E92EF6D705D0D8903B323A32D2
:107C78003932402A3F504062F8D720D040503F1850
:107C88001DE03F50405C416E190E415C04E33C6AC4
:107C98003D6A3E6A13D0D89039363A363B364006AC
:107CA8003F50401808E0E92EF6D705D0D8903E326C
:107CB8003D323C323F2A3F504062F8D7D95007E066
:107CC800391E3A1E3B1E392A000E3A223B22E15049
:107CD80007E03C1E3D1E3E1E3C2A000E3D223E2271
:107CE800D96A3C5039263D503A223E503B223BAEA1
:107CF80009D0391E3A1E3B1E392A000E3A223B2271
:107D0800010ED96E40C044F0390E426E000E436E2B
:107D180093EC3DF0D95002E0800E3B1A1200D36A72
:107D28000F0EC16EF10E926EC70E936E956A070E16
:107D3800966EC08E9D9CACEC3BF02D0E306E2F6A7B
:107D4800020EC5EC3AF02D0E306E2F6A030EC5EC0C
:107D58003AF0410E306E2F6A040EC5EC3AF04E0E22
:107D6800306E2F6A050EC5EC3AF0360E306E2F6A6B
:107D7800060EC5EC3AF0540E306E2F6A080EC5ECAC
:107D88003AF0450E306E2F6A090EC5EC3AF0530EE4
:107D9800306E2F6A0A0EC5EC3AF0540E306E2F6A18
:107DA8000B0EC5EC3AF02D0E306E2F6A0C0EC5EC9A
:107DB8003AF02D0E306E2F6A0D0EC5EC3AF0D96AE6
:107DC800190EC26E00F000F000F000F0C282C2B2DC
:107DD800FED7C350C4CF2DF02E6A2DC02EF02D6AC9
:107DE8002D26000E2E22D950020DF350E96EEA6AB4
:107DF8002DC0EEFF2EC0EDFFD92A0F0ED964E0D7B3
:107E0800236A246AE16AE150020DF350E96EEA6AD6
:107E1800EE502326ED502422E12A0F0EE164F3D719
:107E2800233A243A23162450F00B23120F0E24165B
:107E380023C02FF024C030F032EC3BF02FC020F0EC
:107E480030C021F031C022F0326A480E336E420E43
:107E5800346E20C02FF021C030F022C031F042EC47
:107E68003DF02FC02FF030C030F031C031F09A0E05
:107E7800326ECC0E336E420E346EF2EC3CF02FC0F4
:107E880020F030C021F031C022F0200E326E20C028
:107E98002FF021C030F022C031F0D2EC3BF020C0EE
:107EA80032F021C033F022C034F0C00E2F6E790EAC
:107EB800306E440E316EFBEC3BF006E2C00E206ED5
:107EC800790E216E440E226E20C036F021C037F0A4
:107ED80022C038F05FEC3CF036C023F037C024F005
:107EE800560E306E010E2F6EC5EC3AF06F0E306EE6
:107EF800010E2F6E020EC5EC3AF06C0E306E010EBC
:107F08002F6E030EC5EC3AF0740E306E010E2F6E14
:107F1800040EC5EC3AF0610E306E010E2F6E050EA0
:107F2800C5EC3AF0670E306E010E2F6E060EC5ECEA
:107F38003AF0650E306E010E2F6E070EC5EC3AF062
:107F48003A0E306E010E2F6E080EC5EC3AF0640E34
:107F5800316E000E326A23C02FF024C030F087EC57
:107F68003BF02FC025F030C026F02550300F306E82
:107F7800010E2F6E0A0EC5EC3AF02E0E306E010E71
:107F88002F6E0B0EC5EC3AF0640E74EC3BF04DEC22
:107F98003BF02FC027F030C028F027C02FF028C0B2
:107FA80030F00A0E316E000E326A87EC3BF02FC0BB
:107FB80029F030C02AF02950300F306E010E2F6E94
:107FC8000C0EC5EC3AF00A0E74EC3BF04DEC3BF0AD
:107FD8002FC02BF030C02CF02B50300F306E010E1C
:107FE8002F6E0D0EC5EC3AF0560E306E010E2F6E48
:087FF8000E0EC5EC3AF0E3D6D1
:020000040030CA
:08000000000C1F1EFF8181FFAF
:00000001FF
