:020000040000FA
:040000000CEF00F011
:100018000EEF00F035D00001FD6BFE6B090EFF6F8F
:10002800D36A0F0EC16E956A836AFD0EE96E000EE3
:10003800EA6EEE2A000EED22EE524E0EED5C210E17
:10004800D8B4EF5CD8A001D001D017D00001FD6B67
:10005800FE6BFF2B090EFF6501D001D001D0FF6BAD
:10006800FFC000F0016A0050000FF66E0150F76EF5
:10007800040EF7220800F550836ED7D70CEF00F076
:02008800CAD7D5
:0A0400003F065B4F666D7D077F6FBE
:020000040030CA
:08000000FFFCFFFEFFFDBBFF4A
:020000040000FA
:00000001FF
