:020000040000FA
:040000000CEF00F011
:0C000800D8CFFFF3E0CF07F030EF00F09E
:1000180003EEFBF013EEFEF016EC01F000EEFEF03E
:1000280011EE00F016EC01F033EF00F014D0F2A25C
:1000380001D001D008D0C80EE8CFFDF300010F0EA3
:10004800FE6F270EFF6FF292FEC3E8FF07C0E0FFC6
:10005800FFC3D8FF1000EBD7E8CFFEF3E7D7ADD04A
:10006800D36A0F0EC16E9368F80E946E956A836A10
:10007800F296F19CF288F28E0301010EFB27FA0E2C
:100088000301FB6501D001D095D00301FB6B03018F
:10009800010EFD27C80E0301FD6501D001D012D065
:1000A8000301FD6B0001010EFE27000EFF23270E42
:1000B800FF5D100ED8B4FE5DD8A001D001D002D0EB
:1000C800FE6BFF6B836A0301010EFC27030E03011D
:1000D800FC6501D001D002D00301FC6BFCC382FF98
:1000E8005ED0E80E026E030E036EFEC000F0FFC085
:1000F80001F0E2EC00F00450000FF66E0550F76EC8
:10010800040EF7220800F550836E54D0E80E026EF4
:10011800030E036EFEC000F0FFC001F0E2EC00F039
:10012800640E026E036AE2EC00F00450000FF66EF3
:100138000550F76E040EF7220800F550836E3AD08A
:10014800640E026E036AFEC000F0FFC001F0E2EC2C
:1001580000F00A0E026E036AE2EC00F00450000F91
:10016800F66E0550F76E040EF7220800F550836E00
:1001780021D00A0E026E036AFEC000F0FFC001F033
:10018800E2EC00F00050000FF66E0150F76E040E1E
:10019800F7220800F550836E0DD00CD00BD0FCC3AD
:1001A800E8FF000A9EE0010AB1E0030AC9E0010A7B
:1001B800E0E0F3D761D70CEF00F052D7066A046A83
:1001C800056A0250031003E1006A016A000C1F0E61
:1001D8000612D890062A02360336FCE303320232AE
:1001E8000250005C0350015804E3016E0250005EA7
:1001F800D88004360536062E06BAF0D706AE05D0E6
:10020800041E042AD8B40506051E0450026E0550C3
:10021800036E06AC000C001E002AD8B40106011EAD
:10022800000CEE6AEA50E262FCD7E950E162F9D7C5
:020238001200B2
:0A0400003F065B4F666D7D077F6FBE
:020000040030CA
:08000000FFFCFFFEFFFDBBFF4A
:020000040000FA
:00000001FF
