:020000040000FA
:040000000CEF00F011
:08000800D8CFFFF329EF00F04F
:1000180003EEFDF013EEFEF05FEC00F000EEFEF0F4
:1000280011EE00F05FEC00F02CEF00F00DD0F2A222
:1000380001D001D003D03F0EE8CFFDF3F292FEC30A
:10004800E8FFFFC3D8FF1000F2D7E8CFFEF3EED7E2
:1000580030D0D36A0F0EC16E9368956A836AF296A0
:10006800F19CF288F28E0001010EFE27000EFF239C
:10007800270EFF5D110ED8B4FE5DD8A001D001D0C7
:1000880015D0FE6BFF6B0301010EFD2703013F0E28
:10009800FD17FDC300F0016A0050000FF66E015015
:1000A800F76E040EF7220800F550836EDCD70CEFCC
:1000B80000F0CFD7EE6AEA50E262FCD7E950E1627D
:0400C800F9D7120052
:100400000102040810204080C0E0F0F8FCFEFFFE6E
:10041000FCF8F0E0C08080402010080402010204D3
:1004200008102040804020100804020103060C1828
:100430003060C00001051555575F7FFF00AA5500C9
:020000040030CA
:08000000FFFCFFFEFFFDBBFF4A
:020000040000FA
:00000001FF
