:020000040000FA
:040000000CEF00F011
:0C000800D8CFFFF3E0CF07F0EEEF00F0E0
:1000180000EEF6F011EE00F08AEC01F0F1EF00F0DE
:10002800FA002BD00001FC6BFD6B1CD00001FE6BAD
:10003800FF6B000EFF5D0A0ED8B4FE5DD8A001D09C
:1000480001D001D00CD00001FE4BFF2B000EFF5D4C
:100058000A0ED8B4FE5DD8A001D001D0F4D70001B3
:10006800FC4BFD2B0001FB51FD5D02E1FA51FC5DEB
:10007800D8A001D001D0DAD71200D4D70CD0958EF1
:10008800819A8188818600D083BE01D001D0FCD7B7
:100098008196959E1200F3D707D0819A8198836E36
:1000A800818600F081961200F8D706D0E7DF0001BC
:1000B800FF6FFF51F1DF1200F9D708D0DFDF818A27
:1000C8008198836E818600F081961200F7D7FD0033
:1000D80014D00F0B0001FE6F010EFD17FD51D8A4BF
:1000E80001D001D004D0FE518009DFDF05D0000126
:1000F800FE51400F8009D9DF1200EBD720D0960EB1
:100108000001FA6FFB6B8DDF380EC6DF320E00017F
:10011800FA6FFB6B86DF380EBFDF320E0001FA6F15
:10012800FB6B7FDF380EB8DF380EBFDF080EBDDF90
:10013800010EBBDF060EB9DF0C0EB7DF1200DFD7EA
:10014800FA000AD0FAC0FDF00001FC6FFC51C0DFD4
:100158000001FB51B2DF1200F5D70BD0010ECD6EB6
:100168009E909D80CF68130ECE6E9E6AF28CF28EA2
:100178001200F4D72ED09EA001D001D023D0CF6892
:10018800130ECE6E9E900001010EF627000EF72387
:10019800010EF75D900ED8B4F65DD8A001D001D05D
:1001A80011D0F66BF76B010EF827000EF923270E16
:1001B800F95D100ED8B4F85DD8A001D001D002D0F6
:1001C800F66BF76BFEC3E8FF07C0E0FFFFC3D8FF7D
:1001D8001000D1D7E8CFFEF3CDD763D0D36A0F0E86
:1001E800C16EC70E936E956A89DFB7DF0001FA6B9F
:1001F800E80E026E030E036EF8C000F0F9C001F0BD
:1002080056EC01F00450300FFB6F000E9ADF00012E
:10021800FA6BE80E026E030E036EF8C000F0F9C028
:1002280001F056EC01F0640E026E036A56EC01F020
:100238000450300FFB6F010E84DF0001FA6B640E6F
:10024800026E036AF8C000F0F9C001F056EC01F044
:100258000A0E026E036A56EC01F00450300FFB6F71
:10026800020E6FDF0001FA6B2E0EFB6F030E69DFC3
:100278000001FA6B0A0E026E036AF8C000F0F9C0BA
:1002880001F056EC01F00050300FFB6F040E59DFFF
:100298000001FA6B530EFB6F050E53DFA7D70CEF67
:1002A80000F09CD7066A046A056A0250031003E14D
:1002B800006A016A000C1F0E0612D890062A023640
:1002C8000336FCE3033202320250005C035001584B
:1002D80004E3016E0250005ED88004360536062E0F
:1002E80006BAF0D706AE05D0041E042AD8B405060F
:1002F800051E0450026E0550036E06AC000C001E6D
:10030800002AD8B40106011E000CEE6AEA50E26227
:0A031800FCD7E950E162F9D71200AA
:020000040030CA
:08000000FFFCFFFEFFFDBBFF4A
:020000040000FA
:00000001FF
