:020000040000FA
:100000000CEF00F0001E011E021E031E000E002A4F
:10001000012202220322120000EED9F011EE00F0BC
:10002000F2EC01F02BEF00F015D0320E0001F96F69
:10003000FA6B00D00001F951006EFA51016E010E09
:10004000F95F000EFA5B01500010D8A401D001D076
:10005000F1D71200EAD769D10001F96BFA6BFB6B9B
:10006000FC6BFD6BFE6BFF6B926A956A070EC16EAF
:10007000806883680001F96B630EF96501D001D0D7
:1000800001D007D00001F92B630EF96501D001D032
:10009000F9D70001FB2B140EFB6501D001D01CD059
:1000A000FB6B010EFC27000EFD23000EFE23000E4D
:1000B000FF23000EFF5D08E10F0EFE5D05E1420E1D
:1000C000FD5D02E1400EFC5DD8A001D001D004D05E
:1000D000FC6BFD6BFE6BFF6B83680001FA2B050E5A
:1000E000FA6501D001D001D0FA6B0001FA51D8A411
:1000F00001D001D01FD01F0E806EA00E046E860EA0
:10010000056E010E066E000E076EFCC000F0FDC00D
:1001100001F0FEC002F0FFC003F096EC01F00050C9
:10012000000FF66E0150F76E040EF7220800F5502E
:10013000836EF8D00001FA05D8A401D001D031D0E7
:100140002F0E806EA00E046E860E056E010E066EDA
:10015000000E076EFCC000F0FDC001F0FEC002F012
:10016000FFC003F096EC01F004C000F005C001F000
:1001700006C002F007C003F0100E046E270E056ED5
:10018000000E066E000E076E96EC01F00050000F98
:10019000F66E0150F76E040EF7220800F550836EDC
:1001A000C1D00001FA51020AD8A401D001D031D047
:1001B000370E806E100E046E270E056E000E066E52
:1001C000000E076EFCC000F0FDC001F0FEC002F0A2
:1001D000FFC003F096EC01F004C000F005C001F090
:1001E00006C002F007C003F0E80E046E030E056EB1
:1001F000000E066E000E076E96EC01F00050000F28
:10020000F66E0150F76E040EF7220800F550836E6B
:1002100089D00001FA51030AD8A401D001D02ED010
:100220003B0E806EE80E046E030E056E000E066E29
:10023000000E076EFCC000F0FDC001F0FEC002F031
:10024000FFC003F096EC01F004C000F005C001F01F
:1002500006C002F007C003F0640E046E056A066A69
:10026000076A96EC01F00050000FF66E0150F76E31
:10027000040EF7220800F550836E54D00001FA51A5
:10028000040AD8A401D001D02BD03D0E806E640E9C
:10029000046E056A066A076AFCC000F0FDC001F042
:1002A000FEC002F0FFC003F096EC01F004C000F0C5
:1002B00005C001F006C002F007C003F00A0E046E8C
:1002C000056A066A076A96EC01F00050000FF66EA8
:1002D0000150F76E040EF7220800F550836E22D00D
:1002E0000001FA51050AD8A401D001D01BD03E0E5E
:1002F000806E0A0E046E056A066A076AFCC000F08A
:10030000FDC001F0FEC002F0FFC003F096EC01F06A
:100310000450000FF66E0550F76E040EF722080029
:10032000F550836EA7D60CEF00F096D6E96AEA6A1C
:100330000C6A086A096A0A6A0B6A045005100610FA
:10034000071006E1046A056A066A076A05EF02F00B
:10035000C00E0C1606D0D890043605360636073681
:100360000C2A07AEF8D70C2AD890083609360A3678
:100370000B360750035C08E10650025C05E10550AE
:10038000015C02E10450005C09E308800450005E57
:100390000550015A0650025A0750035AD8900732A6
:1003A0000632053204320C060C503F0BDDE10CBC6A
:1003B00002EC00F00050046E0150056E0250066E13
:1003C0000350076E0850006E0950016E0A50026E0D
:1003D0000B50036E0CAE09EF02F002EC00F009EFD7
:1003E00002F0EE6AEA50E262FCD7E950E162F9D726
:0203F0001200F9
:10040000C0F9A4B0999282F88090036A026A016AE6
:10041000006AE950EA1008E003C0EDFF02C0EDFFFA
:0A04200001C0EDFF00C0EFFF000C6B
:020000040030CA
:08000000FFFCFFFEFFFDBBFF4A
:020000040000FA
:00000001FF
