:1000000000EE00F0070EEE6AE806FDE1306A04EE4D
:1000100000F011EE00F017EC00F00FEE70F00F0E94
:10002000EE6AE806FDE1000EF86E05EF04F0EE6AF8
:0C003000E550E150FCE1E250FAE1120062
:1008000000005812080306060000D36A0F0EC16EDE
:10081000926A946A956A020E936EE9EC04F09EEC7B
:1008200005F013EC05F02D0E366E000E356AC4ECA3
:1008300005F02D0E366E356A010EC4EC05F0440E3F
:10084000366E356A020EC4EC05F0530E366E356A0C
:10085000030EC4EC05F0310E366E356A040EC4EC9E
:1008600005F0330E366E356A050EC4EC05F0300E19
:10087000366E356A060EC4EC05F0320E366E356AF9
:10088000070EC4EC05F0200E366E356A080EC4EC77
:1008900005F0540E366E356A0A0EC4EC05F0450EAE
:1008A000366E356A0B0EC4EC05F0530E366E356AA3
:1008B0000C0EC4EC05F0540E366E356A0D0EC4EC09
:1008C00005F02D0E366E356A0E0EC4EC05F02D0EB9
:1008D000366E356A0F0EC4EC05F081B206D003C047
:1008E00000F004C001F006C002F060EC05F000501A
:1008F0000F0B316E326A300E311231C036F0010EFC
:10090000356E0B0EC4EC05F00050F00B316E326A00
:10091000040E336E323432323132332EFBD7300E86
:10092000311231C036F0010E356E0A0EC4EC05F0FE
:100930002D0E366E010E356E090EC4EC05F0015019
:100940000F0B316E326A300E311231C036F0010EAB
:10095000356E080EC4EC05F00150F00B316E326AB2
:10096000040E336E323432323132332EFBD7300E36
:10097000311231C036F0010E356E070EC4EC05F0B1
:100980002D0E366E010E356E060EC4EC05F00250CB
:100990000F0B316E326A300E311231C036F0010E5B
:1009A000356E050EC4EC05F00250F00B316E326A64
:1009B000040E336E323432323132332EFBD7300EE6
:1009C000311231C036F0010E356E040EC4EC05F064
:1009D00084D7960E356E000E366A77EC05F0380E29
:1009E000BAEC05F0320E356E000E366A77EC05F083
:1009F000380EBAEC05F0320E356E000E366A77EC22
:100A000005F0380EBAEC05F0380ED7EC05F0080EFC
:100A1000D7EC05F0010ED7EC05F0060ED7EC05F08B
:100A20000C0ED7EF05F0818ABE0E49EC05F0356A51
:100A3000366A3550010F376E37C0F6FF080EF76E75
:100A40000800F55049EC05F0354A362A3650800A40
:100A5000800F080ED8B4355CECE3819A12009388BD
:100A60009388F36AF46A8190D890303281A802D0DA
:100A7000308E01D0309E8180F34AF42AF450800AEF
:100A8000800F080ED8B4F35CEEE393988190305059
:100A90001200E8CFD9FF9398F36AF46A81988190A5
:100AA000D9B08188D890D9328180F34AF42AF450A1
:100AB000800A800F080ED8B4F35CF0E38190120036
:100AC000818ABF0E49EC05F0356A366A3550E96E09
:100AD000EA6A2FEC05F0EF6E354A362A3650800A66
:100AE000800F070ED8B4355CF1E3819A1200F36AE7
:100AF000F46A3550F35C3650F4580CE2376A386AC1
:100B0000374A382A0A0E375C000E3858F9E3F34AA0
:100B1000F42AEFD71200E8CFF3FF0F0EF316010E01
:100B20003716376605D0F3508009D7EC05F005D0AD
:100B3000F350400F8009D7EC05F01200819A939A88
:100B40009388819093908190819A818A8E0E49EC4E
:100B500005F0000E49EC05F0819A1200E8CFD9FFAC
:100B6000CEEC05F080828094D9CF83FF808600F0A0
:100B700080961200E8CFE9FF80928094E9CF83FF4E
:100B8000808600F080961200E8CFF4FF35C037F081
:100B9000F4508BEC05F03650AEEF05F0958E809258
:100BA0008084808683BEFED78096959E1200E8CF13
:0C0BB000D9FFCEEC05F0D950BAEF05F0EB
:020000040030CA
:08000000000C1F1EFF8181FFAF
:00000001FF
