:1000000000EE00F0150EEE6AE806FDE104EE00F0E9
:1000100011EE00F014EC00F00FEE70F00F0EEE6A2F
:10002000E806FDE1A4EF3EF0EE6AE550E150FCE1A8
:06003000E250FAE11200AB
:10756A00E8CFE1FFC3EC3AF0E150CCEF3AF02F500C
:10757A003010311002E0800E311A1200958E80927E
:10758A008084808683BEFED78096959E1200E8CFBF
:10759A00D9FF80928094D9CF83FF808600F08096AD
:1075AA001200E8CFF3FF1DC01FF0F350ECEC3AF0E5
:1075BA001E50E0EF3AF0E8CFD9FFC3EC3AF08082F0
:1075CA008094D9CF83FF808600F080961200E8CF9E
:1075DA00E9FF0F0EE916010E1F161F6605D0E950C6
:1075EA008009B5EC3AF005D0E950400F8009B5ECB6
:1075FA003AF01200F36AF46A1D50F35C1E50F45814
:10760A000CE21F6A206A1F4A202A0A0E1F5C000E1B
:10761A002058F9E3F34AF42AEFD71200800E261A0B
:10762A0024C02AF025C02BF026C02CF021C027F058
:10763A0022C028F023C029F00BEC3EF027C021F02D
:10764A0028C022F029C023F0120021C024F022C051
:10765A0025F023C026F070EC3CF024C024F025C0AD
:10766A0025F026C026F027C027F0B5EC3CF024C050
:10767A0021F025C022F026C023F012001E501D1052
:10768A0004E11D6A1E6A1F6A13D01DC020F01EC0C5
:10769A0021F0226A8E0E326E200E306E000E316E8E
:1076AA00A4EC3DF020C01DF021C01EF022C01FF046
:1076BA00120020501F1017E0010ED96E20BE05D00F
:1076CA00D8901F362036D92AF9D71F501D5C205072
:1076DA001E5804E31F501D5E20501E5AD8902032B7
:1076EA001F32D92EF2D71200320E1D6E000E1E6AFC
:1076FA00120020502526215026222250272212002D
:10770A001F6E000E206A13C01DF014C01EF0120076
:10771A0030C0E9FF31C0EAFFEC52EC52D890ED32AA
:10772A00ED32EF321200F36AF46A20501F101BE0A8
:10773A00010ED96ED89020BE05D01F362036D92A20
:10774A00F9D7D890F336F4361F501D5C20501E58D6
:10775A0005E31F501D5E20501E5AF380D890203238
:10776A001F32D92EEED7F3CF1DF0F4CF1EF0120040
:10777A00960E1D6E000E1E6AFFEC3AF0380ECCEC27
:10778A003AF079EC3BF0FFEC3AF0380ECCEC3AF0F8
:10779A0079EC3BF0FFEC3AF0380ECCEC3AF0380ECC
:1077AA00B5EC3AF0080EB5EC3AF0010EB5EC3AF049
:1077BA00060EB5EC3AF00C0EB5EF3AF01DC021F00A
:1077CA001EC022F01FC023F02AEC3BF02050E96EC5
:1077DA00EA6A21C0EEFF22C0EEFF23C0EDFF20506F
:1077EA00E96EEA6AEECF24F0EECF25F0EDCF26F06F
:1077FA001DC021F01EC022F01FC023F013EC3BF085
:10780A0021C01DF022C01EF023C01FF01200000E7E
:10781A001FAE0ED0236A246A800E256E1D50235C8B
:10782A001D6E1E5024581E6E1F5025581F6E000EC6
:10783A0022AE0ED0236E246A800E256E2050235C61
:10784A00206E21502458216E22502558226E000E97
:10785A001D1A800E1F1A221A20501D5C21501E5814
:10786A0022501F58120030C0E9FF31C0EAFF010E52
:10787A00EB34020EEB34E16E32C0E9FF33C0EAFFAB
:10788A00E1CFEFFFE16609D030C0E9FF31C0EAFF7E
:10789A00000EEE6AEE6AED6A1DD0D96A30C0E9FFC1
:1078AA0031C0EAFF010EEB8E30C0E9FF31C0EAFFBA
:1078BA00EECF34F0EECF35F0EECF36F036BED92A21
:1078CA0030C0E9FF31C0EAFFFF0EEE16EE16000ED9
:1078DA00ED16D9501200280E326E000E336E240EA9
:1078EA00306E000E316E38EC3CF0F36E2450296E87
:1078FA0025502A6E26502B6E2C6A8E0E285E28AED4
:10790A000CD02850800A8F0F0BE3D8902C322B32E0
:10791A002A322932283EF9D710D01F0E28640BD0FC
:10792A00246A256A266A276A1AD0D89029362A36FE
:10793A002B362C3628062866F8D7F35008E02C1E7A
:10794A002B1E2A1E296C000E2A222B222C2229C029
:10795A0024F02AC025F02BC026F02CC027F01200F4
:10796A00275024102510261004E1246A256A266A65
:10797A0044D0E16A27AE0AD0271E261E251E246C93
:10798A00000E252226222722010EE16E8E0ED96EC6
:10799A002B6A2C6A2D6A27502E6E2E502B102C1013
:1079AA002D1007E0D8902732263225322432D92AE0
:1079BA00EFD724C028F025C029F026C02AF0D9CF55
:1079CA0032F0280E306E000E316EA4EC3DF0E1501C
:1079DA000EE028C02FF029C030F02AC031F0BCECEC
:1079EA003AF02FC028F030C029F031C02AF028C060
:1079FA0024F029C025F02AC026F01200256A266A3A
:107A0A00276A240E326E000E336E1D0E306E000E83
:107A1A00316E38EC3CF0F36E246601D038D0230E78
:107A2A00326E000E336E200E306E000E316E38EC60
:107A3A003CF0F46E236601D02AD02350890F245ECD
:107A4A00F450F31A180ED96ED890253626362736F2
:107A5A0020501D5C21501E5822501F5807E3205009
:107A6A001D5E21501E5A22501F5A2580D8901D365D
:107A7A001E361F36D92EE8D724C032F0250E306EB6
:107A8A00000E316EA4EC3DF0F350D8A4278E25C029
:107A9A001DF026C01EF027C01FF01200256A266AB4
:107AAA00276A230E326E000E336E1D0E306E000EE4
:107ABA00316E38EC3CF0F36E240E326E000E336EEB
:107ACA00200E306E000E316E38EC3CF0F31A245062
:107ADA002FE0236601D02CD024507B0F2326070EDB
:107AEA00246E1DB07EEC3BF0D8901F321E321D3240
:107AFA00D890203621362236242EF3D7090E246E4A
:107B0A001DB07EEC3BF0D8901F321E321D32D89049
:107B1A00273226322532242EF3D723C032F0250EFF
:107B2A00306E000E316EA4EC3DF0F350D8A4278ECF
:107B3A0025C01DF026C01EF027C01FF012003250CB
:107B4A0030C0E9FF08E031C0EAFFEE50EE10ED1058
:107B5A000CE130C0E9FF31C0EAFF000EEE6AEE6ABE
:107B6A00ED6A53D0322A8DEC3BF030C0E9FF31C0C8
:107B7A00EAFFEE52EE52FE0EED140CE0F3D7322A73
:107B8A0030C0E9FF31C0EAFFEE2A000EEE22ED22F4
:107B9A008DEC3BF030C0E9FF31C0EAFFEE52EE5205
:107BAA00FF0EED140AE0EBD7320630C0E9FF31C010
:107BBA00EAFFD890EE36EE36ED3630C0E9FF31C036
:107BCA00EAFFEECF33F0EECF34F0EECF35F034AE3D
:107BDA00EBD732B00AD030C0E9FF31C0EAFFFF0E5E
:107BEA00EE167F0EEE16FF0EED16D8903232325098
:107BFA00356E346A336A30C0E9FF31C0EAFF335068
:107C0A00EE123450EE123550ED1212002E0E326E74
:107C1A00000E336E270E306E000E316E38EC3CF0DB
:107C2A00F36E2E6607D02AC027F02BC028F02CC08E
:107C3A0029F084D02D0E326E000E336E2A0E306E6D
:107C4A00000E316E38EC3CF0F46E2D506BE0060EEF
:107C5A00D96E2D502E6022D02E502D5C2F6E190E0B
:107C6A002F5C08E3276A286A296A2DC02EF0F4CF10
:107C7A00F3FF34D0D8902A362B362C362D062D50C9
:107C8A002E1808E0D92EF6D705D0D89029322832F6
:107C9A0027322E2A2D502E62F8D720D02E502D189A
:107CAA001DE02D502E5C2F6E190E2F5C04E32A6AFC
:107CBA002B6A2C6A13D0D8902736283629362E06F6
:107CCA002D502E1808E0D92EF6D705D0D8902C3290
:107CDA002B322A322D2A2D502E62F8D7F35007E084
:107CEA00271E281E291E272A000E28222922F45080
:107CFA0007E02A1E2B1E2C1E2A2A000E2B222C22BB
:107D0A00F36A2A5027262B5028222C50292229AEE2
:107D1A0009D0271E281E291E272A000E28222922BA
:107D2A00010EF36E2EC032F0270E306E000E316E49
:107D3A00A4EC3DF0F35002E0800E291A1200D36A37
:107D4A000F0EC16EF10E926EC70E936E956A070EF4
:107D5A00966EC09E9D9CBDEC3BF02D0E1E6E1D6A5C
:107D6A00020ED6EC3AF02D0E1E6E1D6A030ED6ECEC
:107D7A003AF0410E1E6E1D6A040ED6EC3AF04E0E13
:107D8A001E6E1D6A050ED6EC3AF0360E1E6E1D6A80
:107D9A00060ED6EC3AF0540E1E6E1D6A080ED6EC8C
:107DAA003AF0450E1E6E1D6A090ED6EC3AF0530ED5
:107DBA001E6E1D6A0A0ED6EC3AF0540E1E6E1D6A2D
:107DCA000B0ED6EC3AF02D0E1E6E1D6A0C0ED6EC7A
:107DDA003AF02D0E1E6E1D6A0D0ED6EC3AF0D96AD7
:107DEA00190EC26E00F000F000F000F0C282C2B2BA
:107DFA00FED7D950E96EEA6AC4CFEFFFD92A0F0E2F
:107E0A00D964EED7136A146AE16AE150E96EEA6A44
:107E1A00EF501326000E1422E12A0F0EE164F5D763
:107E2A00133A143A13161450F00B13120F0E1416B9
:107E3A0013C01DF014C01EF043EC3BF01DC010F03F
:107E4A001EC011F01FC012F0206A480E216E420EA9
:107E5A00226E10C01DF011C01EF012C01FF053ECAC
:107E6A003DF01DC01DF01EC01EF01FC01FF0206A8D
:107E7A00CC0E216E410E226E03EC3DF01DC010F0B7
:107E8A001EC011F01FC012F0100E206E10C01DF09F
:107E9A0011C01EF012C01FF0E3EC3BF010C020F03E
:107EAA0011C021F012C022F0C00E1D6E790E1E6E96
:107EBA00440E1F6E0CEC3CF006E2C00E106E790EFA
:107ECA00116E440E126E10C024F011C025F012C0BB
:107EDA0026F070EC3CF024C013F025C014F0560EC6
:107EEA001E6E010E1D6ED6EC3AF06F0E1E6E010E5E
:107EFA001D6E020ED6EC3AF06C0E1E6E010E1D6E51
:107F0A00030ED6EC3AF0740E1E6E010E1D6E040EB0
:107F1A00D6EC3AF0610E1E6E010E1D6E050ED6EC01
:107F2A003AF0670E1E6E010E1D6E060ED6EC3AF082
:107F3A00650E1E6E010E1D6E070ED6EC3AF03A0E55
:107F4A001E6E010E1D6E080ED6EC3AF0640E1F6E00
:107F5A00000E206A13C01DF014C01EF098EC3BF00E
:107F6A001DC015F01EC016F01550300F1E6E010E02
:107F7A001D6E0A0ED6EC3AF02E0E1E6E010E1D6E06
:107F8A000B0ED6EC3AF0640E85EC3BF05EEC3BF05F
:107F9A001DC017F01EC018F017C01DF018C01EF043
:107FAA000A0E1F6E000E206A98EC3BF01DC019F0F5
:107FBA001EC01AF01950300F1E6E010E1D6E0C0EE7
:107FCA00D6EC3AF00A0E85EC3BF05EEC3BF01DC0B5
:107FDA001BF01EC01CF01B50300F1E6E010E1D6ED2
:107FEA000D0ED6EC3AF0560E1E6E010E1D6E0E0EDA
:067FFA00D6EC3AF0F4D6CB
:020000040030CA
:08000000000C1F1EFF8181FFAF
:00000001FF
