:020000040000FA
:040000000CEF00F011
:100018000EEF00F043D0D36A0F0EC16E956A936855
:1000280081B001D001D008D0000EF66E040EF76E34
:100038000800F550836E2FD081B201D001D008D0CE
:10004800010EF66E040EF76E0800F550836E23D08D
:1000580081B401D001D008D0020EF66E040EF76EFE
:100068000800F550836E17D081B601D001D008D0B2
:10007800030EF66E040EF76E0800F550836E0BD073
:1000880081B801D001D007D0040EF66E040EF76EC9
:0E0098000800F550836EC4D70CEF00F0BCD703
:06040000010204081000D7
:020000040030CA
:08000000FFFCFFFEFFFDBBFF4A
:020000040000FA
:00000001FF
