:020000040000FA
:040000000CEF00F011
:0C000800D8CFFFF3E0CF07F0C8EF00F006
:1000180000EEF6F011EE00F07BEC01F0CBEF00F013
:10002800FA002BD00001FC6BFD6B1CD00001FE6BAD
:10003800FF6B000EFF5D0A0ED8B4FE5DD8A001D09C
:1000480001D001D00CD00001FE4BFF2B000EFF5D4C
:100058000A0ED8B4FE5DD8A001D001D0F4D70001B3
:10006800FC4BFD2B0001FB51FD5D02E1FA51FC5DEB
:10007800D8A001D001D0DAD71200D4D70CD0958EF1
:1000880080928084808600D083BE01D001D0FCD7C6
:100098008096959E1200F3D707D080928094836E45
:1000A800808600F080961200F8D706D0E7DF0001BE
:1000B800FF6FFF51F1DF1200F9D708D0DFDF808230
:1000C8008094836E808600F080961200F7D7FD003A
:1000D80014D00F0B0001FE6F010EFD17FD51D8A4BF
:1000E80001D001D004D0FE518009DFDF05D0000126
:1000F800FE51400F8009D9DF1200EBD720D0960EB1
:100108000001FA6FFB6B8DDF380EC6DF320E00017F
:10011800FA6FFB6B86DF380EBFDF320E0001FA6F15
:10012800FB6B7FDF380EB8DF380EBFDF080EBDDF90
:10013800010EBBDF060EB9DF0C0EB7DF1200DFD7EA
:10014800FA000AD0FAC0FDF00001FC6FFC51C0DFD4
:100158000001FB51B2DF1200F5D715D0F2A201D091
:1001680001D009D00001100EF66F270EF76F0F0EA1
:10017800F86F270EF96FF292FEC3E8FF07C0E0FFA1
:10018800FFC3D8FF1000EAD7E8CFFEF3E6D77AD04E
:10019800D36A0F0EC16E926AC70E936E956AF29675
:1001A800F19CF288F28EAADF0001010EF627000EFC
:1001B800F723C30EF75D510ED8B4F65DD8A001D071
:1001C80001D05DD0F66BF76B010EF827000EF9230E
:1001D800270EF95D100ED8B4F85DD8A001D001D073
:1001E80002D0F86BF96B0001FA6BE80E026E030E91
:1001F800036EF8C000F0F9C001F047EC01F00450BC
:10020800300FFB6F000E9DDF0001FA6BE80E026EE7
:10021800030E036EF8C000F0F9C001F047EC01F0DE
:10022800640E026E036A47EC01F00450300FFB6F56
:10023800010E87DF0001FA6B640E026E036AF8C0D4
:1002480000F0F9C001F047EC01F00A0E026E036AF3
:1002580047EC01F00450300FFB6F020E72DF000113
:10026800FA6B0A0E026E036AF8C000F0F9C001F0DA
:1002780047EC01F00050300FFB6F030E62DF94D79C
:100288000CEF00F085D7066A046A056A025003106D
:1002980003E1006A016A000C1F0E0612D890062AB4
:1002A80002360336FCE3033202320250005C03508C
:1002B800015804E3016E0250005ED880043605360A
:1002C800062E06BAF0D706AE05D0041E042AD8B406
:1002D8000506051E0450026E0550036E06AC000CA0
:1002E800001E002AD8B40106011E000CEE6AEA506E
:0C02F800E262FCD7E950E162F9D7120085
:020000040030CA
:08000000FFFCFFFEFFFDBBFF4A
:020000040000FA
:00000001FF
