:020000040000FA
:040000000CEF00F011
:100018000EEF00F0A5D00001FE6BFF6BD36A0F0E48
:10002800C16EF80E936E956A836A0001FB2BFA0E77
:10003800FB6501D001D091D0FB6BFD2BC80EFD658F
:1000480001D001D014D0FD6BFE0EE96E000EEA6EF1
:10005800EE2A000EED22EE52270EED5C100ED8B4FB
:10006800EF5CD8A001D001D002D0FE6BFF6B836A91
:100078000001FC2B030EFC6501D001D001D0FC6B04
:100088000001FC51816E5ED0E80E026E030E036E15
:10009800FEC000F0FFC001F0B5EC00F00450000F06
:1000A800F66E0550F76E040EF7220800F550836EC1
:1000B80054D0E80E026E030E036EFEC000F0FFC0BF
:1000C80001F0B5EC00F0640E026E036AB5EC00F0C6
:1000D8000450000FF66E0550F76E040EF722080064
:1000E800F550836E3AD0640E026E036AFEC000F0CB
:1000F800FFC001F0B5EC00F00A0E026E036AB5EC21
:1001080000F00450000FF66E0550F76E040EF7224B
:100118000800F550836E21D00A0E026E036AFEC0F5
:1001280000F0FFC001F0B5EC00F00050000FF66ED3
:100138000150F76E040EF7220800F550836E0DD0BB
:100148000CD00BD00001FC51000A9EE0010AB1E07E
:10015800030AC9E0010AE0E0F3D767D70CEF00F023
:100168005AD7066A046A056A0250031003E1006A56
:10017800016A000C1F0E0612D890062A02360336B2
:10018800FCE3033202320250005C0350015804E3DE
:10019800016E0250005ED88004360536062E06BA77
:1001A800F0D706AE05D0041E042AD8B40506051EED
:1001B8000450026E0550036E06AC000C001E002AA7
:0801C800D8B40106011E000C71
:0A0400003F065B4F666D7D077F6FBE
:020000040030CA
:08000000FFFCFFFEFFFDBBFF4A
:020000040000FA
:00000001FF
