:020000040000FA
:040000000CEF00F011
:10001800ABEF00F0FA002BD00001FC6BFD6B1CD09D
:100028000001FE6BFF6B000EFF5D0A0ED8B4FE5D8B
:10003800D8A001D001D001D00CD00001FE4BFF2B7D
:10004800000EFF5D0A0ED8B4FE5DD8A001D001D025
:10005800F4D70001FC4BFD2B0001FB51FD5D02E1D3
:10006800FA51FC5DD8A001D001D0DAD71200D4D75C
:100078000CD0958E819A8188818600D083BE01D06C
:1000880001D0FCD78196959E1200F3D707D0819AAC
:100098008198836E818600F081961200F8D706D089
:1000A800E7DF0001FF6FFF51F1DF1200F9D708D039
:1000B800DFDF818A8198836E818600F08196120045
:1000C800F7D7FD0014D00F0B0001FE6F010EFD17CE
:1000D800FD51D8A401D001D004D0FE518009DFDF42
:1000E80005D00001FE51400F8009D9DF1200EBD77F
:1000F80020D0960E0001FA6FFB6B8DDF380EC6DF3D
:10010800320E0001FA6FFB6B86DF380EBFDF320E4E
:100118000001FA6FFB6B7FDF380EB8DF380EBFDFE8
:10012800080EBDDF010EBBDF060EB9DF0C0EB7DF10
:100138001200DFD7FA000AD0FAC0FDF00001FC6F08
:10014800FC51C0DF0001FB51B2DF1200F5D746D0E9
:10015800D36A0F0EC16EC70E936E956AC9DF000190
:10016800FA6B300EFB6F000EE6DF0001FA6B310E02
:10017800FB6F010EE0DF0001FA6B320EFB6F020E1F
:10018800DADF0001FA6B330EFB6F030ED4DF0001D8
:10019800FA6B340EFB6F040ECEDF0001FA6B350EDE
:1001A800FB6F050EC8DF0001FA6B360EFB6F060EFB
:1001B800C2DF0001FA6B370EFB6F070EBCDF0001D0
:1001C800FA6B380EFB6F080EB6DF0001FA6B390EBA
:0E01D800FB6F090EB0DFFFD70CEF00F0B9D7B8
:020000040030CA
:08000000FFFCFFFEFFFDBBFF4A
:020000040000FA
:00000001FF
