:020000040000FA
:040000000CEF00F011
:10000800EE6AEA50E262FCD7E950E162F9D71200E1
:1000180000EE00F010EE01F005EC00F000EEFCF050
:1000280011EE00F005EC00F038EF00F01CD000A055
:1000380001D001D013D082840001010EFE27000EEA
:10004800FF234E0EFF5D210ED8B4FE5DD8A001D06F
:1000580001D003D0FE6BFF6B009004D00001FE6B53
:10006800FF6B82941200E3D71CD0D36A0F0EC16EC7
:10007800FB0E946EBD6A8284D9DF0001010EFC2755
:10008800000EFD23EA0EFD5D610ED8B4FC5DD8A01C
:1000980001D001D003D0FC6BFD6B0080EDD70CEFD5
:0400A80000F0E3D7AA
:020000040030CA
:08000000FFFCFFFEFFFDBBFF4A
:020000040000FA
:00000001FF
