:020000040000FA
:040000000CEF00F011
:10001800ACEF00F0FA002CD00001FC6BFD6B1DD09A
:100028000001FE6BFF6B000EFF5D0A0ED8B4FE5D8B
:10003800D8A001D001D001D00DD004000001FE4BA2
:10004800FF2B000EFF5D0A0ED8B4FE5DD8A001D0CC
:1000580001D0F3D70001FC4BFD2B0001FB51FD5DE6
:1000680002E1FA51FC5DD8A001D001D0D9D7120025
:10007800D3D70CD0958E819A8188818600D083BE93
:1000880001D001D0FCD78196959E1200F3D707D0F6
:10009800819A8198836E818600F081961200F8D744
:1000A80006D0E7DF0001FF6FFF51F1DF1200F9D73B
:1000B80008D0DFDF818A8198836E818600F081967F
:1000C8001200F7D7FD0014D00F0B0001FE6F010ED0
:1000D800FD17FD51D8A401D001D004D0FE518009EC
:1000E800DFDF05D00001FE51400F8009D9DF120083
:1000F800EBD720D0960E0001FA6FFB6B8CDF380E21
:10010800C6DF320E0001FA6FFB6B85DF380EBFDFEA
:10011800320E0001FA6FFB6B7EDF380EB8DF380E47
:10012800BFDF080EBDDF010EBBDF060EB9DF0C0E08
:10013800B7DF1200DFD7FA000AD0FAC0FDF00001DD
:10014800FC6FFC51C0DF0001FB51B2DF1200F5D794
:100158008FD0D36A0F0EC16EC70E936E956AC9DF32
:100168000001F96BF70EE96E000EEA6EEE2A000E3A
:10017800ED22EE52C30EED5C510ED8B4EF5CD8A060
:1001880001D001D072D00001F76BF86BF92BF9C0E0
:1001980000F0016A026A036A0350800A800F08E1CE
:1001A800000E025C05E1C30E015C02E1510E005C29
:1001B800D8A001D001D001D0F96B0001FA6B100E64
:1001C800026E270E036EF9C000F0016A9EEC01F082
:1001D8000450300FFB6F000EAFDF0001FA6B100EFA
:1001E800026E270E036EF9C000F0016A9EEC01F062
:1001F8000050006EE80E016E005070EC01F0300FF8
:10020800FB6F010E99DF0001FA6BE80E026E030E18
:10021800036EF9C000F0016A9EEC01F00050006E18
:10022800640E016E005070EC01F0300FFB6F020E8F
:1002380083DF0001FA6B640E016EF95170EC01F076
:100248000A0E016E005070EC01F0300FFB6F030EC8
:1002580073DF0001FA6B0A0E016EF95170EC01F0C0
:100268000050300FFB6F040E67DF7CD70CEF00F0F7
:1002780070D7066A046A056A0250031003E1006A2F
:10028800016A000C1F0E0612D890062A02360336A1
:10029800FCE3033202320250005C0350015804E3CD
:1002A800016E0250005ED88004360536062E06BA66
:1002B800F0D706AE05D0041E042AD8B40506051EDC
:1002C8000450026E0550036E06AC000C001E002A96
:1002D800D8B40106011E000C006E046AD890FD0E09
:1002E80001241AE3036AF00E011403E1040E036EFD
:1002F800013A026AD890032A0136FDE3013201501F
:10030800005CD8B0006E0236032EF8D704BE026C2B
:10031800025004BE006C1200013206E20132D8A07D
:10032800006AD8900032D8A0D89000C002F0006AC5
:100338000036ECD7066A01AE06D0001E004A010658
:10034800011E068C068E0350800B061A03AE3EEF84
:0E03580001F0021E024A0306031E3EEF01F0F2
:020000040030CA
:08000000FFFCFFFEFFFDBBFF4A
:020000040000FA
:00000001FF
